{
  "_format": "hh-sol-artifact-1",
  "contractName": "TodoList",
  "sourceName": "contracts/TodoList.sol",
  "abi": [
    {
      "anonymous": false,
      "inputs": [
        {
          "components": [
            {
              "internalType": "string",
              "name": "topic",
              "type": "string"
            },
            {
              "internalType": "string",
              "name": "description",
              "type": "string"
            }
          ],
          "indexed": false,
          "internalType": "struct TodoList.Todos[]",
          "name": "",
          "type": "tuple[]"
        }
      ],
      "name": "Todo",
      "type": "event"
    },
    {
      "inputs": [
        {
          "internalType": "string",
          "name": "_topic",
          "type": "string"
        },
        {
          "internalType": "string",
          "name": "_description",
          "type": "string"
        }
      ],
      "name": "addTodo",
      "outputs": [],
      "stateMutability": "nonpayable",
      "type": "function"
    },
    {
      "inputs": [
        {
          "internalType": "uint256",
          "name": "index",
          "type": "uint256"
        },
        {
          "internalType": "string",
          "name": "_topic",
          "type": "string"
        },
        {
          "internalType": "string",
          "name": "_description",
          "type": "string"
        }
      ],
      "name": "changeTodo",
      "outputs": [],
      "stateMutability": "nonpayable",
      "type": "function"
    },
    {
      "inputs": [
        {
          "internalType": "uint256",
          "name": "index",
          "type": "uint256"
        }
      ],
      "name": "removeTodo",
      "outputs": [],
      "stateMutability": "nonpayable",
      "type": "function"
    },
    {
      "inputs": [
        {
          "internalType": "uint256",
          "name": "_index",
          "type": "uint256"
        }
      ],
      "name": "viewTodo",
      "outputs": [
        {
          "internalType": "string",
          "name": "_topic",
          "type": "string"
        },
        {
          "internalType": "string",
          "name": "_description",
          "type": "string"
        }
      ],
      "stateMutability": "view",
      "type": "function"
    },
    {
      "inputs": [],
      "name": "viewTodos",
      "outputs": [
        {
          "components": [
            {
              "internalType": "string",
              "name": "topic",
              "type": "string"
            },
            {
              "internalType": "string",
              "name": "description",
              "type": "string"
            }
          ],
          "internalType": "struct TodoList.Todos[]",
          "name": "",
          "type": "tuple[]"
        }
      ],
      "stateMutability": "view",
      "type": "function"
    }
  ],
  "bytecode": "0x608060405234801561001057600080fd5b506110b6806100206000396000f3fe608060405234801561001057600080fd5b50600436106100575760003560e01c80631b7fb2601461005c5780633be3d70314610078578063b46afa8914610094578063f5c75df1146100b0578063fad1b16c146100e1575b600080fd5b61007660048036038101906100719190610978565b6100ff565b005b610092600480360381019061008d9190610a26565b6101b7565b005b6100ae60048036038101906100a99190610a53565b610315565b005b6100ca60048036038101906100c59190610a26565b6103d8565b6040516100d8929190610b66565b60405180910390f35b6100e961052b565b6040516100f69190610ced565b60405180910390f35b60026040518060400160405280848152602001838152509080600181540180825580915050600190039060005260206000209060020201600090919091909150600082015181600001908051906020019061015b9291906106ae565b5060208201518160010190805190602001906101789291906106ae565b5050507fe63b36d64d1dd1b81b116aa7f45856c5bbb39f6e06d81e51cf74e1aec88d4bdf60026040516101ab9190610efe565b60405180910390a15050565b60028054905081106101c857610312565b60008190505b60016002805490506101e09190610f4f565b81101561028d5760026001826101f69190610f83565b8154811061020757610206610fd9565b5b90600052602060002090600202016002828154811061022957610228610fd9565b5b9060005260206000209060020201600082018160000190805461024b90610d5e565b610256929190610734565b50600182018160010190805461026b90610d5e565b610276929190610734565b50905050808061028590611008565b9150506101ce565b5060028054806102a05761029f611051565b5b6001900381819060005260206000209060020201600080820160006102c591906107c1565b6001820160006102d591906107c1565b505090557fe63b36d64d1dd1b81b116aa7f45856c5bbb39f6e06d81e51cf74e1aec88d4bdf60026040516103099190610efe565b60405180910390a15b50565b6002805490508310610326576103d3565b6040518060400160405280838152602001828152506002848154811061034f5761034e610fd9565b5b906000526020600020906002020160008201518160000190805190602001906103799291906106ae565b5060208201518160010190805190602001906103969291906106ae565b509050507fe63b36d64d1dd1b81b116aa7f45856c5bbb39f6e06d81e51cf74e1aec88d4bdf60026040516103ca9190610efe565b60405180910390a15b505050565b6060806000600284815481106103f1576103f0610fd9565b5b90600052602060002090600202019050806000018160010181805461041590610d5e565b80601f016020809104026020016040519081016040528092919081815260200182805461044190610d5e565b801561048e5780601f106104635761010080835404028352916020019161048e565b820191906000526020600020905b81548152906001019060200180831161047157829003601f168201915b505050505091508080546104a190610d5e565b80601f01602080910402602001604051908101604052809291908181526020018280546104cd90610d5e565b801561051a5780601f106104ef5761010080835404028352916020019161051a565b820191906000526020600020905b8154815290600101906020018083116104fd57829003601f168201915b505050505090509250925050915091565b60606002805480602002602001604051908101604052809291908181526020016000905b828210156106a5578382906000526020600020906002020160405180604001604052908160008201805461058290610d5e565b80601f01602080910402602001604051908101604052809291908181526020018280546105ae90610d5e565b80156105fb5780601f106105d0576101008083540402835291602001916105fb565b820191906000526020600020905b8154815290600101906020018083116105de57829003601f168201915b5050505050815260200160018201805461061490610d5e565b80601f016020809104026020016040519081016040528092919081815260200182805461064090610d5e565b801561068d5780601f106106625761010080835404028352916020019161068d565b820191906000526020600020905b81548152906001019060200180831161067057829003601f168201915b5050505050815250508152602001906001019061054f565b50505050905090565b8280546106ba90610d5e565b90600052602060002090601f0160209004810192826106dc5760008555610723565b82601f106106f557805160ff1916838001178555610723565b82800160010185558215610723579182015b82811115610722578251825591602001919060010190610707565b5b5090506107309190610801565b5090565b82805461074090610d5e565b90600052602060002090601f01602090048101928261076257600085556107b0565b82601f1061077357805485556107b0565b828001600101855582156107b057600052602060002091601f016020900482015b828111156107af578254825591600101919060010190610794565b5b5090506107bd9190610801565b5090565b5080546107cd90610d5e565b6000825580601f106107df57506107fe565b601f0160209004906000526020600020908101906107fd9190610801565b5b50565b5b8082111561081a576000816000905550600101610802565b5090565b6000604051905090565b600080fd5b600080fd5b600080fd5b600080fd5b6000601f19601f8301169050919050565b7f4e487b7100000000000000000000000000000000000000000000000000000000600052604160045260246000fd5b6108858261083c565b810181811067ffffffffffffffff821117156108a4576108a361084d565b5b80604052505050565b60006108b761081e565b90506108c3828261087c565b919050565b600067ffffffffffffffff8211156108e3576108e261084d565b5b6108ec8261083c565b9050602081019050919050565b82818337600083830152505050565b600061091b610916846108c8565b6108ad565b90508281526020810184848401111561093757610936610837565b5b6109428482856108f9565b509392505050565b600082601f83011261095f5761095e610832565b5b813561096f848260208601610908565b91505092915050565b6000806040838503121561098f5761098e610828565b5b600083013567ffffffffffffffff8111156109ad576109ac61082d565b5b6109b98582860161094a565b925050602083013567ffffffffffffffff8111156109da576109d961082d565b5b6109e68582860161094a565b9150509250929050565b6000819050919050565b610a03816109f0565b8114610a0e57600080fd5b50565b600081359050610a20816109fa565b92915050565b600060208284031215610a3c57610a3b610828565b5b6000610a4a84828501610a11565b91505092915050565b600080600060608486031215610a6c57610a6b610828565b5b6000610a7a86828701610a11565b935050602084013567ffffffffffffffff811115610a9b57610a9a61082d565b5b610aa78682870161094a565b925050604084013567ffffffffffffffff811115610ac857610ac761082d565b5b610ad48682870161094a565b9150509250925092565b600081519050919050565b600082825260208201905092915050565b60005b83811015610b18578082015181840152602081019050610afd565b83811115610b27576000848401525b50505050565b6000610b3882610ade565b610b428185610ae9565b9350610b52818560208601610afa565b610b5b8161083c565b840191505092915050565b60006040820190508181036000830152610b808185610b2d565b90508181036020830152610b948184610b2d565b90509392505050565b600081519050919050565b600082825260208201905092915050565b6000819050602082019050919050565b600082825260208201905092915050565b6000610be582610ade565b610bef8185610bc9565b9350610bff818560208601610afa565b610c088161083c565b840191505092915050565b60006040830160008301518482036000860152610c308282610bda565b91505060208301518482036020860152610c4a8282610bda565b9150508091505092915050565b6000610c638383610c13565b905092915050565b6000602082019050919050565b6000610c8382610b9d565b610c8d8185610ba8565b935083602082028501610c9f85610bb9565b8060005b85811015610cdb5784840389528151610cbc8582610c57565b9450610cc783610c6b565b925060208a01995050600181019050610ca3565b50829750879550505050505092915050565b60006020820190508181036000830152610d078184610c78565b905092915050565b600081549050919050565b60008190508160005260206000209050919050565b7f4e487b7100000000000000000000000000000000000000000000000000000000600052602260045260246000fd5b60006002820490506001821680610d7657607f821691505b60208210811415610d8a57610d89610d2f565b5b50919050565b60008190508160005260206000209050919050565b60008154610db281610d5e565b610dbc8186610bc9565b94506001821660008114610dd75760018114610de957610e1c565b60ff1983168652602086019350610e1c565b610df285610d90565b60005b83811015610e1457815481890152600182019150602081019050610df5565b808801955050505b50505092915050565b60006040830160008084018583036000870152610e428382610da5565b925050600184018583036020870152610e5b8382610da5565b925050819250505092915050565b6000610e758383610e25565b905092915050565b6000600282019050919050565b6000610e9582610d0f565b610e9f8185610ba8565b935083602082028501610eb185610d1a565b8060005b85811015610eec57848403895281610ecd8582610e69565b9450610ed883610e7d565b925060208a01995050600181019050610eb5565b50829750879550505050505092915050565b60006020820190508181036000830152610f188184610e8a565b905092915050565b7f4e487b7100000000000000000000000000000000000000000000000000000000600052601160045260246000fd5b6000610f5a826109f0565b9150610f65836109f0565b925082821015610f7857610f77610f20565b5b828203905092915050565b6000610f8e826109f0565b9150610f99836109f0565b9250827fffffffffffffffffffffffffffffffffffffffffffffffffffffffffffffffff03821115610fce57610fcd610f20565b5b828201905092915050565b7f4e487b7100000000000000000000000000000000000000000000000000000000600052603260045260246000fd5b6000611013826109f0565b91507fffffffffffffffffffffffffffffffffffffffffffffffffffffffffffffffff82141561104657611045610f20565b5b600182019050919050565b7f4e487b7100000000000000000000000000000000000000000000000000000000600052603160045260246000fdfea264697066735822122029f3d62d10d4a661d9a354afde9ad3a859f8cb6e55c57aaf9da815fc274b2d9564736f6c63430008080033",
  "linkReferences": {},
  "deployedLinkReferences": {}
}